:020000040800F2
:1000000098C40024DD030008A1880008397F000897
:1000100099880008D909000831BD000800000000D7
:10002000000000000000000000000000618C0008DB
:100030000110000800000000C1880008998C000829
:10004000FB030008FB030008FB030008FB03000898
:10005000FB030008FB030008FB030008FB03000888
:10006000FB030008FB030008FB030008210B00084A
:10007000310B0008410B0008510B0008610B000810
:10008000710B0008810B0008FB03000841100008F9
:1000900061100008511000087110000809100008D4
:1000A000FB030008FB030008FB030008FB03000838
:1000B000498E0008FB030008598E0008FB03000866
:1000C000FB030008FB030008FB030008FB03000818
:1000D000FB030008C99F0008D99F0008E99F00089A
:1000E000FB030008FB03000800000000FB030008FE
:1000F000898E0008FB030008FB030008910B000831
:10010000FB030008FB030008FB030008698B0008E1
:10011000FB030008FB030008698E0008798E0008C5
:10012000A10B0008B10B0008C10B0008D10B00089F
:10013000E10B0008FB030008FB030008FB030008B9
:1001400000000000000000000000000000000000AF
:10015000FB030008FB030008FB030008F99F0008ED
:10016000FB030008FB030008FB030008FB03000877
:10017000FB030008A9880008FB030008000000003A
:10018000FB030008FB030008FB030008F98F0008CD
:10019000FB030008FB030008FB030008FB03000847
:1001A000FB030008FB030008FB030008000000003D
:1001B000FB030008FB030008FB030008FB03000827
:1001C000FB030008FB030008000000000000000023
:1001D0000000000000000000FB0300080000000019
:1001E000000000000000000000000000000000000F
:1001F0000000000000000000FB030008FB030008F3
:10020000FB030008FB03000800000000FB030008DC
:10021000FB030008FB030008FB030008FB030008C6
:10022000FB03000800000000FB03000800000000C2
:10023000FB030008FB03000800000000FB030008AC
:10024000FB030008FB030008FB030008FB03000896
:10025000FB030008FB030008FB030008FB03000886
:10026000FB030008FB030008FB030008FB03000876
:10027000FB030008FB030008FB030008000000006C
:10028000FB030008FB030008FB030008FB03000856
:1002900000000000FB030008FB0300080000000052
:1002A00000000000FB030008110B0008FB0300081E
:1002B000FB030008FB030008FB0300088110000893
:1002C00091100008FB030008FB03000800F002F88F
:1002D00000F074F814A696E8000CB244B344DA4572
:1002E00001D100F06BF8BAE80F000FA696E83000D5
:1002F000A5EB040504EB0607AAEB0704A7F1010729
:100300004FEA15154FEA3414A4F10104AC4201D3AD
:1003100000F054F813F0010F18BFFB1A43F001036B
:1003200000F001F8DBE718477006020090060200B3
:100330000A444FF0000C10F8013B13F0070408BF0B
:1003400010F8014B1D1108BF10F8015B641E05D0A9
:1003500010F8016B641E01F8016BF9D113F0080F5E
:100360001EBF10F8014BAD1C0C1B09D16D1E58BFF0
:1003700001F801CBFAD505E014F8016B01F8016B27
:100380006D1EF9D59142D6D370470000704700002A
:100390000023002400250026103A28BF78C1FBD88E
:1003A000520728BF30C148BF0B6070471FB51FF010
:1003B000B9FB00F07BF91FBD10B510BD00F0DCF9F2
:1003C0001146FFF7F3FF1CF0F3FC00F0FAF903B459
:1003D000FFF7F2FF03BC00F0C5F900000A488047B0
:1003E0000A4880470A480047FEE7FEE7FEE7FEE7C7
:1003F000FEE7FEE7FEE7FEE7FEE7FEE70548064903
:10040000064A074B7047000021100008718D000854
:10041000CD02000898BE002498C4002498C000248F
:1004200098C0002453EA020C00F069802DE9F04BDB
:100430004FF00006002B1FBFB3FA83F503FA05F453
:1004400024FA05F65E4012BF1643B2FA82F502FAAC
:1004500005F4C5F120051EBF22FA05FC44EA0C0490
:10046000203556EA044C4FEA144418BF641C4FF080
:1004700000084FF00009904271EB030C39D30029BA
:1004800019BFB1FA81F701FA07F6B0FA80F700FA5E
:1004900007F6C7F120071EBF20FA07FC46EA0C0644
:1004A0002037B6FBF4FCA7EB0507103F07F01F0B46
:1004B000CBF120062CFA06F60CFA0BFB44BFB34630
:1004C0000026202FA4BF5E464FF0000B5BEA060C0F
:1004D00008BF4FF0010B19EB0B0948EB0608ABFB0B
:1004E000027C06FB02CC0BFB03CCC01B71EB0C01A6
:1004F000C1E70B46024641464846BDE8F08B13B5BE
:10050000084318BF4FF0FF300146AFF30080BDE84D
:100510001C407047032A40F2308010F0030C00F0BA
:10052000158011F8013BBCF1020F624498BF11F82D
:1005300001CB00F8013B38BF11F8013BA2F10402E6
:1005400098BF00F801CB38BF00F8013B11F003035E
:1005500000F02580083AC0F0088051F8043B083AC2
:1005600051F804CBA0E80810F5E7121D5CBF51F864
:10057000043B40F8043BAFF30080D20724BF11F8DE
:10058000013B11F801CB48BF11F8012B24BF00F843
:10059000013B00F801CB48BF00F8012B704710B5B4
:1005A000203AC0F00B80B1E81850A0E81850B1E82C
:1005B0001850A0E81850203ABFF4F5AF5FEA027C6B
:1005C00024BFB1E81850A0E8185044BF18C918C09B
:1005D000BDE810405FEA827C24BF51F8043B40F83C
:1005E000043B08BF7047D20728BF31F8023B48BF21
:1005F00011F8012B28BF20F8023B48BF00F8012B5F
:10060000704702F0FF0343EA032242EA024200F08D
:1006100024B84FF000020429C0F0128010F0030C3F
:1006200000F01B80CCF1040CBCF1020F18BF00F8E5
:10063000012BA8BF20F8022BA1EB0C0100F00DB894
:100640005FEAC17C24BF00F8012B00F8012B48BFF2
:1006500000F8012B70474FF0000200B51346944696
:100660009646203922BFA0E80C50A0E80C50B1F10A
:100670002001BFF4F7AF090728BFA0E80C5048BF1E
:100680000CC05DF804EB890028BF40F8042B08BFBC
:10069000704748BF20F8022B11F0804F18BF00F8B8
:1006A000012B7047704770477047000008487CB5C1
:1006B0007844009007487844009C0546019004E087
:1006C0002046016808448047241DAC42F8D17CBD17
:1006D000040302001603020070B50446051F00F073
:1006E0002DF80068002C14BF446870BD002C18BFA2
:1006F000AC423CBF20466468F8D301680A18AA429D
:1007000018BF456003D12A68054611440160286876
:100710004119A1421CBF6C6070BD616869602168AD
:100720000844286070BD10B500F00CF8006810BDDA
:1007300010B5044600F006F8046010BD004870478C
:1007400098010024004870479001002410B5002053
:1007500000F040F8FFF730FEBDE81040012000F047
:1007600001B8000001491820ABBEFEE726000200D8
:1007700000487047900100247546FFF7F9FFAE4628
:1007800005006946534620F00700854618B020B59D
:10079000FFF734FEBDE820404FF000064FF00007A1
:1007A0004FF000084FF0000BAC46ACE8C009ACE8D5
:1007B000C009ACE8C009ACE8C00921F007018D46CA
:1007C000704710B50446AFF300802046BDE81040E6
:1007D000FFF7FDBD10B500F00BF8BDE8104000F0CC
:1007E00001B87047002801D0FFF7BCBF7047000078
:1007F00010B5002102A000F013F8012010BD000088
:10080000534947414252543A2041626E6F726D61C2
:100810006C207465726D696E6174696F6E000000A2
:1008200070B505460C460A2000E06D1C00F011F87A
:1008300035B128780028F8D102E0641C00F009F8EE
:1008400014B120780028F8D1BDE870400A20AFF339
:10085000008008B569468DF800000320ABBE08BDD6
:10086000B0B582B00BF0C8FD41F20C740021C2F2A9
:1008700000440122012320460025009501950CF03B
:1008800097FE4FF0804102220223204600950195F9
:100890000CF08EFE20460CF0A7FE41F66404002109
:1008A000C2F20044032201232046009501950CF07A
:1008B0007FFE4FF0804104220223204600950195DF
:1008C0000CF076FE20460CF08FFE41F6BC140021A1
:1008D000C2F20044052201232046009501950CF048
:1008E00067FE4FF0804106220223204600950195C5
:1008F0000CF05EFE20460CF077FE47F61810C2F2B0
:100900000040006806F01CFA08B100F081FB47F6D1
:100910007C10C2F20040006806F012FA08B100F044
:1009200077FB47F6B400C2F20040006806F008FA10
:1009300008B100F06DFB43F2C820C2F2004006F09F
:100940009BF941F2D060C2F2004018F0B1F841F6D4
:100950006050C2F2004018F0ABF843F2DC60C2F223
:10096000004018F0A5F843F22470C2F2004018F0DD
:100970009FF841F65C70C2F2004002B0BDE8B040A2
:1009800014F036BF0000000040F64961C2F2004199
:100990000978002908BF7047B0B540F64C64C2F230
:1009A000004400BF22681368834204D0013904F177
:1009B0000404F7D10DE0908858B1002502EB8500C2
:1009C00080680168096888472268013590888542F7
:1009D000F4D3BDE8B0407047FEE70000000000001F
:1009E0000020704700000000002070470000000059
:1009F00010B542F28C1440F6F031C2F20044C2F25B
:100A000000410022204609F0CFFC40F6F0112046BC
:100A1000C2F2004109F0B8FC002010BD0000000047
:100A200040293FD8F0B581B040F63C66C2F200469E
:100A30003368A3B3B3F85C23B3F85E53EF433A448F
:100A400002F5007202EBD25707F47E47D21B92B236
:100A50008A4224D30246C5F5007084B28C4210D27B
:100A60002B440F1A03F5AE70154611462246FFF7C8
:100A700051FD36682919BAB206F5AE70FFF74AFD86
:100A800009E058190C4600F5AE7011462246FFF7F2
:100A900041FD2F1936686FF35F27A6F85E7301B02A
:100AA000BDE8F04070470000B0B509680446FFF7A4
:100AB000B7FF42F28C152146C2F20045284609F0E4
:100AC00063FC284609F03CFC0020B0BD000000009B
:100AD000002070470000000042F28C12C2F2004277
:100AE000D2F8BC22D2F81422002A1CBF0120704781
:100AF00010B542F28C140A46C2F200440146204668
:100B000009F052FC2046BDE8104009F0C5BC0000C9
:100B100042F26840C2F2004000F006BB0000000054
:100B200042F2E860C2F2004000F072BF0000000034
:100B300042F26070C2F2004000F06ABF00000000A4
:100B400042F6C800C2F2004000F062BF00000000A0
:100B500042F64010C2F2004000F05ABF0000000010
:100B600042F29040C2F2004000F052BF000000008C
:100B700042F20850C2F2004000F04ABF00000000FC
:100B800042F2F850C2F2004000F042BF0000000004
:100B900042F27060C2F2004000F03ABF0000000074
:100BA00042F6B810C2F2004000F032BF0000000070
:100BB00042F63020C2F2004000F02ABF00000000E0
:100BC00042F2D870C2F2004000F022BF00000000E4
:100BD00042F65000C2F2004000F01ABF00000000D0
:100BE00042F28050C2F2004000F012BF000000004C
:100BF00040F20F42D0F800C0C4F20202944510DC6B
:100C00006F22C4F20202944520DC3F22C4F20202A9
:100C1000944536DC1022C4F20202944554D02822B6
:100C20004EE040F26F42C4F2020294451ADC40F2F8
:100C30003F42C4F2020294452ADC40F21042C4F260
:100C40000202944540D040F2284239E09F22C4F28B
:100C50000202944525DC7022C4F20202944533D08E
:100C600088222DE040F29F42C4F2020294451FDC2C
:100C700040F27042C4F20202944525D040F288420C
:100C80001EE04022C4F2020294451DD0582217E013
:100C900040F24042C4F20202944515D040F258425C
:100CA0000EE0A022C4F2020294450DD0B82207E063
:100CB00040F2B842C4F20202944505D040F2A0428C
:100CC000C4F20202944517D10CF0F8024AF6AB23A5
:100CD000103ACAF6AA23A2FB033109A35F2AC1F383
:100CE00002115B5C40F2FF312CEA0101C36588BF51
:100CF00004318165084670472CF0FF01F9E700BF19
:100D0000000610160006101670B540F26F44D0F8B9
:100D100000C0C4F20204D0F858E0A44519DC9F25B5
:100D2000C4F20205AC4531DC5725C4F20205AC45DE
:100D300056DC1025C4F20205AC4500F0928028254F
:100D4000C4F20205AC4500F08C804025C4F20205D7
:100D500084E045F22F45C5F60205AC452BDC40F298
:100D6000B745C4F20205AC4548DC40F27045C4F218
:100D70000205AC4575D040F28845C4F20205AC4589
:100D80006FD040F2A045C4F2020567E040F227456B
:100D9000C4F20205AC4540DCA025C4F20205AC4516
:100DA0005FD0B825C4F20205AC455AD040F21045D8
:100DB000C4F2020552E045F26B45C5F60205AC45AA
:100DC0003CDC45F23045C5F60205AC4549D045F25C
:100DD0004445C5F60205AC4543D045F258453BE0D5
:100DE0005825C4F20205AC453BD07025C4F202057B
:100DF000AC4536D08825C4F202052FE040F2B84554
:100E0000C4F20205AC452CD045F20845C5F60205F2
:100E1000AC4526D045F21C451EE040F22845C4F200
:100E20000205AC451DD040F24045C4F20205AC4578
:100E300017D040F25845C4F202050FE045F26C4568
:100E4000C5F60205AC450CD045F29445C5F6020541
:100E5000AC4506D045F28045C5F60205AC4540F0EC
:100E6000CC80456EC66E002E866E6E601CBFD0E9CB
:100E70001C566E60A44515DC9F24C4F20204A445F0
:100E80002BDC5724C4F20204A4454EDC1024C4F227
:100E90000204A44576D02824C4F20204A44571D0EB
:100EA00040246BE045F22F44C5F60204A44527DC3C
:100EB00040F2B744C4F20204A44542DC40F270445C
:100EC000C4F20204A4455DD040F28844C4F2020496
:100ED000A44557D040F2A04450E040F22744C4F269
:100EE0000204A4453CDCA024C4F20204A44549D079
:100EF000B824C4F20204A44544D040F210443DE0BA
:100F000045F26B44C5F60204A44553DC45F2304477
:100F1000C5F60204A4455FD045F24444C5F6020478
:100F2000A44559D045F2584452E05824C4F2020472
:100F3000A44527D07024C4F20204A44522D08824FA
:100F40001CE040F2B844C4F20204A4451AD045F2B1
:100F50000844C5F60204A4453ED045F21C4437E0DF
:100F600040F22844C4F20204A4450BD040F24044AD
:100F7000C4F20204A44505D040F25844C4F202046D
:100F8000A4453AD18468C06D00F01F003F2505FAE2
:100F900000F0CEF80800DCF80000402C20F480209F
:100FA000CCF80000CCF8043023D1CCF80820CCF8E1
:100FB0000C1070BD45F26C44C5F60204A4450BD07C
:100FC00045F28044C5F60204A44505D045F2944498
:100FD000C5F60204A44510D1C46D012504F01F0418
:100FE000806805FA04F4CEF804404028CCF80430B8
:100FF000DBD0CCF80810CCF80C2070BD000000004D
:1010000070470000000000004FF4807002F054BEF2
:10101000EFF3108072B600BFFEE700000000000092
:1010200044F60C00C5F60200016841F002010160BF
:1010300050F8081C8904FBD5704700000000000030
:1010400042F63030C2F2004002F0B6B800000000B4
:1010500042F63030C2F2004002F0AEB800000000AC
:1010600042F6D030C2F2004002F0A6B80000000004
:1010700042F6D030C2F2004002F09EB800000000FC
:1010800042F67040C2F2004002F096B80000000044
:1010900042F67040C2F2004002F08EB8000000003C
:1010A000F0B5D1E900C4D1F808E00D692CB14EEAE1
:1010B0000C04254345F0804C03E045EA8C4444EAA7
:1010C0000E0C856ED0F88470D1E907466B438D69AC
:1010D00044EA0660D1F814E0CC68054307EB8300CE
:1010E00045EA0E0647F823C046EA04434360CB684E
:1010F000002B08BFF0BD40F2B00C083001320023D5
:10110000C0F6020CD71857F8017CC750CF680433DB
:101110001CF80770BB42F5D3F0BD000000000000D2
:10112000704700000000000001680A68D2032DD556
:101130000A68B2F1FF3FC8BF7047D0F808C0036922
:101140006246013B03618B6842F8043B82600A6897
:10115000120305D58A68CCF804200CF108028260DD
:10116000C3688BB1D0F804C0013BC360634653F839
:10117000042B4A6043600A68D20205D5DCF80420DB
:101180004A600CF108024260026902B170470A68C5
:1011900022F480320A60012180F82110FFF7C0BFDD
:1011A000C0B190F8211049B910B5002180F8201085
:1011B000044600F011F82046BDE8104000214162CD
:1011C000C0E90111C0E903114161012280F8212029
:1011D00008467047012070472DE9F04182B044F283
:1011E000004104460068C4F6020188421CBF02B0F8
:1011F000BDE8F08144F2DC4042F29045C5F60200C1
:10120000C2F2004540F2700800260168C4F20208EC
:1012100041F40031016000684FF4806700F4003051
:10122000019001987A2068602846C5F80080C5E9D9
:101230000266C5E90476C5E90666C5E9086601F0F7
:1012400027F908B1FFF7E4FEE56108F11800AC6387
:1012500042F20855C2F2004505F1080128607B20E2
:1012600068604020C1C128466E62C5E90566C5E9CF
:10127000076601F00DF908B1FFF7CAFE9A200521B3
:101280000022A561AC6302F023FF9A2002B0BDE802
:10129000F04102F009BF00002DE9F041044602F0E0
:1012A000FBFD14B3054694F83500022820D140F226
:1012B0000F472668C4F2020740F26F48BE426FF043
:1012C0000E00C4F2020817DC6F21C4F202018E4244
:1012D00023DC3F21C4F202018E4239DC1021C4F22A
:1012E00002018E4258D0282151E00120BDE8F08152
:1012F00080206065012037E246451ADC40F23F411C
:10130000C4F202018E422ADC40F21041C4F2020112
:101310008E4241D040F2284139E09F21C4F20201BF
:101320008E4225DC7021C4F202018E4234D0882125
:101330002DE040F29F41C4F202018E421FDC40F2D8
:101340007041C4F202018E4226D040F288411EE074
:101350004021C4F202018E421ED0582117E040F213
:101360004041C4F202018E4216D040F258410EE0D4
:10137000A021C4F202018E420ED0B82107E040F253
:10138000B841C4F202018E4206D040F2A041C4F23C
:1013900002018E42314607D13146306820F01E00EE
:1013A00041F8140B6FF080000A68464500EA02001D
:1013B000086019DC9F20C4F20200864231DC57200D
:1013C000C4F20200864256DC1020C4F202008642BB
:1013D00000F091802820C4F20200864200F08B8049
:1013E0004020C4F2020084E045F22F40C5F602001E
:1013F00086422BDC40F2B740C4F20200864248DC51
:1014000040F27040C4F20200864274D040F288403C
:10141000C4F2020086426ED040F2A040C4F2020044
:1014200067E040F22740C4F20200864240DCA02080
:10143000C4F2020086425ED0B820C4F202008642A6
:1014400059D040F21040C4F2020052E045F26B4025
:10145000C5F6020086423CDC45F23040C5F602008B
:10146000864248D045F24440C5F60200864242D04A
:1014700045F258403BE05820C4F2020086423AD080
:101480007020C4F20200864235D08820C4F20200E7
:101490002FE040F2B840C4F2020086422BD045F261
:1014A0000840C5F60200864225D045F21C401EE0E9
:1014B00040F22840C4F2020086421CD040F2404074
:1014C000C4F20200864216D040F25840C4F2020034
:1014D0000FE045F26C40C5F6020086420BD045F2A3
:1014E0009440C5F60200864205D045F28040C5F61C
:1014F0000200864204D1206E016821F480710160EF
:10150000306820F0010030603068C0070BD002F076
:10151000C3FC401B0628F7D320206065032084F815
:101520003500012020E120680821B8424FF03F0239
:1015300010DC6F23C4F2020398421CDC3F23C4F288
:101540000203984232DC1023C4F20203984251D0C5
:1015500028234AE040451ADC40F23F43C4F202032C
:1015600098422ADC40F21043C4F20203984241D070
:1015700040F2284339E09F23C4F20203984225DC5D
:101580007023C4F20203984234D088232DE040F245
:101590009F43C4F2020398421FDC40F27043C4F23E
:1015A0000203984226D040F288431EE04023C4F252
:1015B000020398421ED0582317E040F24043C4F281
:1015C0000203984216D040F258430EE0A023C4F222
:1015D000020398420ED0B82307E040F2A043C4F2C1
:1015E0000203984206D040F2B843C4F20203984284
:1015F00040F0BF80D4E9163707F01F07404502FAD4
:1016000007F25A5019DC9F21C4F20201884231DCF2
:101610005721C4F20201884256DC1021C4F20201B3
:10162000884200F091802821C4F20201884200F033
:101630008B804021C4F2020184E045F22F41C5F6BF
:10164000020188422BDC40F2B741C4F20201884219
:1016500048DC40F27041C4F20201884274D040F28A
:101660008841C4F2020188426ED040F2A041C4F227
:10167000020167E040F22741C4F20201884240DCE7
:10168000A021C4F2020188425ED0B821C4F2020156
:10169000884259D040F21041C4F2020152E045F2B2
:1016A0006B41C5F6020188423CDC45F23041C5F68B
:1016B0000201884248D045F24441C5F60201884201
:1016C00042D045F258413BE05821C4F20201884221
:1016D0003AD07021C4F20201884235D08821C4F288
:1016E00002012FE040F2B841C4F2020188422BD03F
:1016F00045F20841C5F60201884225D045F21C4159
:101700001EE040F22841C4F2020188421CD040F29F
:101710004041C4F20201884216D040F25841C4F25E
:1017200002010FE045F26C41C5F6020188420BD080
:1017300045F29441C5F60201884205D045F2804148
:10174000C5F6020188420BD1616EA26EE06E4A605E
:1017500030B1016821F480710160D4E91C0141605D
:10176000012084F835000020002184F83410BDE801
:10177000F081042101223DE7F0B190F835100229F3
:1017800018D180B540F20F420168C4F202029142C2
:1017900014DC6F23C4F20203994224DC3F23C4F219
:1017A000020399423ADC1023C4F20203994258D052
:1017B000282352E0802141650120704740F26F43A9
:1017C000C4F2020399421ADC40F23F43C4F202031E
:1017D00099422ADC40F21043C4F20203994240D0FD
:1017E00040F2284339E09F23C4F20203994225DCEA
:1017F0007023C4F20203994233D088232DE040F2D3
:101800009F43C4F2020399421FDC40F27043C4F2CA
:101810000203994225D040F288431EE04023C4F2DF
:10182000020399421DD0582317E040F24043C4F20E
:101830000203994215D040F258430EE0A023C4F2AF
:10184000020399420DD0B82307E040F2B843C4F236
:101850000203994205D040F2A043C4F20203994228
:101860006ED191424FF0040280F8352010DC6F20D9
:10187000C4F20200814220DC3F20C4F20200814217
:1018800036DC1020C4F20200814253D028204EE002
:1018900040F26F40C4F2020081421ADC40F23F4045
:1018A000C4F2020081422ADC40F21040C4F202007D
:1018B00081423FD040F2284039E09F20C4F202002C
:1018C000814225DC7020C4F20200814232D088209F
:1018D0002DE040F29F40C4F2020081421FDC40F242
:1018E0007040C4F20200814224D040F288401EE0E1
:1018F0004020C4F2020081421CD0582017E040F280
:101900004040C4F20200814214D040F258400EE040
:10191000A020C4F2020081420CD0B82007E040F2BF
:10192000B840C4F20200814204D040F2A040C4F2A8
:1019300002008142086820F001000860002080BD9C
:101940000A6822F00E020A6045F25742C5F602020A
:1019500091420A6822F001020A600EDC45F22F4231
:10196000C5F60202914217DC45F20842C5F60202B2
:10197000914226D045F21C421FE045F27F42C5F657
:101980000202914211DC45F25842C5F60202914230
:1019900017D045F26C4210E045F23042C5F6020223
:1019A00091420ED045F2444207E045F29442C5F61A
:1019B0000202914205D045F28042C5F602029142F0
:1019C0001AD1D0E9181CD0E916E30A6822F4807213
:1019D0000A6003F01F01012202FA01F1CEF804109F
:1019E000816ECCF80410C16E31B10A6822F48072A5
:1019F0000A60D0E91C124A60012180F83510016D9F
:101A00000022002980F8342098D08847002080BD2B
:101A10002DE9F04381B00021009140F2A00148F28D
:101A2000B513C2F20041C1F64E33856D40F26F49E5
:101A30000A680168C4F202092E68A2FB032849451E
:101A40002B6815DC9F22C4F2020291422BDC572244
:101A5000C4F2020291424FDC1022C4F2020291420F
:101A600078D02822C4F20202914273D040226CE066
:101A700045F22F42C5F60202914227DC40F2B742FE
:101A8000C4F20202914243DC40F27042C4F202020C
:101A900091425FD040F28842C4F20202914259D092
:101AA00040F2A04251E040F22742C4F202029142C9
:101AB0003DDCA022C4F2020291424BD0B822C4F213
:101AC0000202914246D040F210423EE045F26B42A3
:101AD000C5F60202914275DC45F23042C5F60202BB
:101AE000914200F0828045F24442C5F602029142E2
:101AF0007BD045F2584273E05822C4F20202914270
:101B000028D07022C4F20202914223D088221CE025
:101B100040F2B842C4F2020291421BD045F20842A0
:101B2000C5F60202914260D045F21C4258E040F2F4
:101B30002842C4F2020291420CD040F24042C4F268
:101B40000202914206D040F25842C4F2020291428F
:101B500040F02D84C26D082302F01F0293403342EF
:101B600000F0168140F20F44C4F20204A1424FF08B
:101B7000040413DC6F27C4F20207B94200F391801A
:101B80003F27C4F20207B94200F3D2801027C4F203
:101B90000207B94200F0F0802827E8E0494500F349
:101BA0008C8040F23F47C4F20207B94200F3C7807D
:101BB00040F21047C4F20207B94200F0DD8040F263
:101BC0002847D4E045F26C42C5F6020291420CD09F
:101BD00045F28042C5F60202914206D045F2944297
:101BE000C5F60202914240F0E2830E68C26D02F037
:101BF0001F02042707FA02F41C4218BF16F004075C
:101C00002CD1022707FA02F41C4218BF16F0020773
:101C100062D1D3401B0740F1CA8316F0080300F0DD
:101C2000C68340F20F43C4F2020399426FF01C03D3
:101C300000F318836F27C4F20207B94200F35483FC
:101C40003F27C4F20207B94200F3B4831027C4F25D
:101C50000207B94200F0D3832827CAE332046C603C
:101C60005ED4B20600F1A18340F20F42C4F2020238
:101C700091426FF0080200F3E3826F23C4F2020383
:101C8000994200F302833F23C4F20203994200F316
:101C900047831023C4F20203994200F08383282370
:101CA0007AE39F27C4F20207B94251DC7027C4F2DD
:101CB0000207B94260D0882759E040F29F47C4F23A
:101CC0000207B9424BDC40F27047C4F20207B94246
:101CD00052D040F288474AE032046C6000F19C82A6
:101CE000B20600F1CF8340F20F42C4F202029142E9
:101CF0006FF0140200F3D6826F23C4F202039942FC
:101D000000F315833F23C4F20203994200F38C834E
:101D10001023C4F20203994200F0AB832823A2E30C
:101D2000F10300F14283816C002940F079833EE3A6
:101D30004027C4F20207B9421ED0582717E040F2EC
:101D40004047C4F20207B94216D040F258470EE0AD
:101D5000A027C4F20207B9420ED0B82707E040F22C
:101D6000A047C4F20207B94206D040F2B847C4F215
:101D70000207B94218BF08240F68274208D00F682D
:101D800027F004070F60AB60436D43F00103436528
:101D90000123934033426FD040F20F47C4F2020751
:101DA000B94210DC6F27C4F20207B9421CDC3F279E
:101DB000C4F20207B94232DC1027C4F20207B9426A
:101DC00051D028274AE049451ADC40F23F47C4F287
:101DD0000207B9422ADC40F21047C4F20207B942B6
:101DE00041D040F2284739E09F27C4F20207B942A8
:101DF00025DC7027C4F20207B94234D088272DE0D1
:101E000040F29F47C4F20207B9421FDC40F270471C
:101E1000C4F20207B94226D040F288471EE04027AC
:101E2000C4F20207B9421ED0582717E040F24047DB
:101E3000C4F20207B94216D040F258470EE0A0277C
:101E4000C4F20207B9420ED0B82707E040F2B84703
:101E5000C4F20207B94206D040F2A047C4F202071A
:101E6000B94240F0E1814F6907F0800424B1AB60D2
:101E7000436D43F0020343650423934033426FD024
:101E800040F20F47C4F20207B94210DC6F27C4F2D8
:101E90000207B9421CDC3F27C4F20207B94232DC18
:101EA0001027C4F20207B94251D028274AE0494519
:101EB0001ADC40F23F47C4F20207B9422ADC40F282
:101EC0001047C4F20207B94241D040F2284739E036
:101ED0009F27C4F20207B94225DC7027C4F202072B
:101EE000B94234D088272DE040F29F47C4F2020760
:101EF000B9421FDC40F27047C4F20207B94226D053
:101F000040F288471EE04027C4F20207B9421ED0C3
:101F1000582717E040F24047C4F20207B94216D0F2
:101F200040F258470EE0A027C4F20207B9420ED093
:101F3000B82707E040F2B847C4F20207B94206D01A
:101F400040F2A047C4F20207B94240F073810F6823
:101F500007F0020424B1AB60436D43F00403436512
:101F6000102303FA02F232427ED040F20F43C4F251
:101F7000020399424FF0080310DC6F27C4F20207F6
:101F8000B9421CDC3F27C4F20207B94232DC1027F9
:101F9000C4F20207B94251D028274AE049451ADC69
:101FA00040F23F47C4F20207B9422ADC40F2104730
:101FB000C4F20207B94241D040F2284739E09F27D6
:101FC000C4F20207B94225DC7027C4F20207B94205
:101FD00034D088272DE040F29F47C4F20207B9426F
:101FE0001FDC40F27047C4F20207B94226D040F22B
:101FF00088471EE04027C4F20207B9421ED0582786
:1020000017E040F24047C4F20207B94216D040F24E
:1020100058470EE0A027C4F20207B9420ED0B827F5
:1020200007E040F2A047C4F20207B94206D040F2EE
:10203000B847C4F20207B94218BF04230F681F4211
:1020400012D0AA600A6852030A6806D4D20506D4E0
:102050000A6822F008020A6001E0110352D4016C00
:1020600011B1044688472046C16D01F01F022021AE
:1020700001FA02F3334200F0A68040F20F470168F4
:10208000C4F202071026B94210DC6F27C4F202071F
:10209000B9421CDC3F27C4F20207B94236DC1027E4
:1020A000C4F20207B94255D028274EE049451ADC50
:1020B00040F23F47C4F20207B9422EDC40F210471B
:1020C000C4F20207B94245D040F228473DE09F27BD
:1020D000C4F20207B94229DC7027C4F20207B942F0
:1020E00038D0882731E040F29F47C4F20207B94256
:1020F00023DC40F27047C4F20207B9422AD040F212
:10210000884722E0816C0029ABD1ADE74027C4F2BB
:102110000207B9421ED0582717E040F24047C4F2E8
:102120000207B94216D040F258470EE0A027C4F289
:102130000207B9420ED0B82707E040F2A047C4F228
:102140000207B94206D040F2B847C4F20207B942CA
:1021500018BF02260F68374235D0AB6090F8353093
:10216000042B0B6816D123F016030B604B6923F088
:1021700080034B61036C0BB9836C1BB10B6823F0BC
:1021800008030B603F219140A960012180F83510C0
:10219000016D3FE15A030A680CD4D2050ED40A68D7
:1021A00022F010020A60012180F83510002180F829
:1021B000341003E0110301D4416C00E0C16B11B194
:1021C000044688472046416D002900F0F080416DAB
:1021D000C9071CD0042180F8351001684FEA982205
:1021E0000B6823F001030B60009B013300939342C3
:1021F00002D80B68DB07F7D10968C9074FF0030164
:1022000008BF012180F83510002180F83410C16C1E
:10221000002940F00581CAE0F10300F13381416CEF
:10222000002940F0FD80C2E000240F68002C7FF4FC
:102230001EAE21E600240F68002C7FF48CAE8FE6E2
:10224000494542DC40F23F43C4F2020399427CDC40
:1022500040F21043C4F20203994200F0A38040F21E
:10226000284399E049454CDC40F23F47C4F202075D
:10227000B94200F3A68040F21047C4F20207B94207
:1022800000F0BD8040F22847B3E09F23C4F2020370
:10229000994263DC7023C4F20203994200F0828009
:1022A000882379E0494560DC40F23F43C4F20203F1
:1022B000994200F3C08040F21043C4F202039942F5
:1022C00000F0D78040F22843CDE040F29F43C4F2B3
:1022D0000203994258DC40F27043C4F2020399426F
:1022E00060D040F2884357E09F27C4F20207B9420A
:1022F00070DC7027C4F20207B94200F080808827A2
:1023000077E040F29F47C4F20207B94269DC40F22D
:102310007047C4F20207B94271D040F2884768E0C2
:102320004023C4F2020399423CD0582334E09F2357
:10233000C4F20203994200F387807023C4F20203BF
:10234000994200F0968088238DE040F24043C4F229
:102350000203994226D040F258431DE0A023C4F264
:10236000020399421ED0B82316E040F29F43C4F204
:10237000020399426FDC40F27043C4F202039942B7
:1023800077D040F288436EE040F2A043C4F20203EB
:10239000994207D040F2B843C4F20203994218BFF1
:1023A0006FF004020B681A400A60016CC1BB01B0F7
:1023B000BDE8F0834027C4F20207B9421FD0582776
:1023C00017E040F24047C4F20207B94217D040F28A
:1023D00058470EE0A027C4F20207B9420FD0B82731
:1023E00007E040F2A047C4F20207B94207D040F22A
:1023F000B847C4F20207B94218BF6FF00E030F6866
:102400003B400B60012101FA02F26A60416580F8ED
:102410003510C16C00294FF0000280F83420C6D07E
:1024200001B0BDE8F04308474023C4F202039942DB
:102430001FD0582317E040F24043C4F202039942F0
:1024400017D040F258430EE0A023C4F20203994291
:102450000FD0B82307E040F2A043C4F20203994230
:1024600007D040F2B843C4F20203994218BF6FF09C
:102470000A020B681A400A60012180F83510002119
:1024800080F83410C16B0029CAD190E70000000029
:102490002DE9F041044601F0FFFCECB140F26F4839
:1024A00005462068C4F20208404518DC9F21C4F2AA
:1024B000020188422EDC5721C4F20201884254DC1A
:1024C0001021C4F2020188427ED02821C4F2020108
:1024D000884279D0402172E00120BDE8F08145F2C8
:1024E0002F41C5F60201884227DC40F2B741C4F211
:1024F0000201884245DC40F27041C4F20201884288
:1025000062D040F28841C4F2020188425CD040F2BD
:10251000A04154E040F22741C4F20201884240DC6D
:10252000A021C4F2020188424ED0B821C4F20201B7
:10253000884249D040F2104141E045F26B41C5F676
:102540000201884200F3B88045F23041C5F602012D
:10255000884200F0C38045F24441C5F6020188423A
:1025600000F0BC8045F25841B4E05821C4F20201A9
:10257000884229D07021C4F20201884224D08821E7
:102580001DE040F2B841C4F2020188421CD045F27D
:102590000841C5F60201884200F0A08045F21C41C6
:1025A00098E040F22841C4F2020188420CD040F287
:1025B0004041C4F20201884206D040F25841C4F2C0
:1025C0000201884240F0CE80022184F835100021BB
:1025D00084F83410016821F001010160206801686D
:1025E000C9070CD001F058FC401B0628F6D3202068
:1025F0006065032084F835000120BDE8F08148F2D1
:102600003F0204F108070168CFF6106211406669C5
:102610008CCF1143D4F818C01943E3693943276AB2
:102620000E43616A3343042943EA070343EA0C0378
:1026300003D1D4E90B7637433B436568A5F12906FE
:10264000292E00F2A1800127DFE806F015151515E7
:1026500015159E9E9E9E9E9E9E9E9E9E9E9E9E9EAC
:102660009E9E151515159E9E9E9E15159E9E9E9EC0
:102670009E9E15151515002F18BF43F480130429CD
:102680000360426922F0070241EA020140F09080B3
:10269000D4E90A53002B41EA050100F08980BCF51A
:1026A000005F61D0BCF1000F6AD1022D74D0012D02
:1026B00060D0002D70D072E045F26C41C5F6020189
:1026C00088420BD045F28041C5F60201884205D010
:1026D00045F29441C5F60201884243D104F1080E47
:1026E000022184F83510002184F834100168A369B0
:1026F0009EE80450A2F18005E769B5FA85F56669A0
:102700006D09402A4FEA853543EA07026FF310113D
:1027100042EA060208BF102541EADC0142EA0E0245
:102720002943236A41EAD2014AF6F832CAF2FD721D
:102730004CF6CD470244CCF6CC4741EA1311A2FB3C
:10274000072301606FF0030000EA9300E065204674
:10275000FEF74EFAE16D012201F01F0102FA01F1CC
:10276000416030E0402043E7032D18D8DFE805F052
:102770000A140A02A3F1C072B2FA82F252090FE0FF
:10278000032D08D201220BE025F00302743AB2FABD
:1027900082F257096FE702D1C3F3006200E0002222
:1027A00032B140206065012084F83500BDE8F08139
:1027B00041612046FEF71CFAE16D3F2201F01F0146
:1027C00002FA01F181602068404519DC9F21C4F2C2
:1027D0000201884231DC5721C4F20201884256DCF2
:1027E0001021C4F20201884200F092802821C4F234
:1027F0000201884200F08C804021C4F2020184E092
:1028000045F22F41C5F6020188422BDC40F2B74168
:10281000C4F20201884248DC40F27041C4F2020175
:10282000884275D040F28841C4F2020188426FD0DC
:1028300040F2A041C4F2020167E040F22741C4F235
:102840000201884240DCA021C4F2020188425FD02C
:10285000B821C4F2020188425AD040F21041C4F2B9
:10286000020152E045F26B41C5F6020188423CDCB0
:1028700045F23041C5F60201884249D045F2444153
:10288000C5F60201884243D045F258413BE0582149
:10289000C4F2020188423BD07021C4F20201884296
:1028A00036D08821C4F202012FE040F2B841C4F2D0
:1028B000020188422CD045F20841C5F60201884247
:1028C00026D045F21C411EE040F22841C4F202012C
:1028D00088421DD040F24041C4F20201884217D024
:1028E00040F25841C4F202010FE045F26C41C5F6D6
:1028F000020188420CD045F29441C5F6020188429B
:1029000006D045F28041C5F60201884240F0D080F1
:1029100045F2574C45F6FC0EC5F6020CC5F6020E04
:1029200060450EDC45F22F43C5F60203984217DCE2
:1029300045F20843C5F60203984226D045F21C43EF
:102940001FE045F27F43C5F60203984211DC45F2D1
:102950005843C5F60203984217D045F26C4310E085
:1029600045F23043C5F6020398420ED045F2444387
:1029700007E045F29443C5F60203984205D045F2BC
:102980008043C5F60203984250D100F0FC034CF698
:10299000CD47083BCCF6CC47A3FB0737AEF1FC058F
:1029A000AEF17C063B0905EB83022266A26803F0C8
:1029B0001F030127802A666607FA03F2A26601D187
:1029C000002262606368A56ED4E91826DFB2591E42
:1029D00007291760756015D87E1E072E62D86045DE
:1029E0000EF1440213DC45F22F41C5F60201884284
:1029F0003CDC45F20841C5F6020188424BD045F265
:102A00001C4144E000206067C4E91B0050E045F22F
:102A10007F41C5F60201884231DC45F25841C5F6D6
:102A20000201884237D045F26C4130E000F0F803F3
:102A30004AF6AB27103BCAF6AA27A3FB073740F29A
:102A40000F43C4F2020308253E09984203F1AA028B
:102A5000334688BF05EB171340F600059042C4F2D9
:102A6000020528BF334605F180069CE745F2304158
:102A7000C5F6020188420ED045F2444107E045F216
:102A80008041C5F60201884205D045F29441C5F661
:102A90000201884213D10EEB8300E0660120226719
:102AA000B040606704F16C02002307CA03604A600B
:102AB00000206065012184F83510BDE8F08140F602
:102AC0000000C4F2020000F1FC0E00F5A072E2E783
:102AD00030B110B590F83440012C03D1022010BD64
:102AE00001207047012480F8344090F83540012CD3
:102AF0002BD1022480F8354000244465D0F800C072
:102B0000DCF8004024F00104CCF800400446FEF755
:102B1000FBF840F20F4C2068C4F2020C40F26F4107
:102B20006045C4F2020118DC6F23C4F2020398422C
:102B300024DC3F23C4F2020398423ADC1023C4F29F
:102B40000203984259D0282352E04FF400614165B6
:102B5000002180F83410012010BD88421ADC40F2B8
:102B60003F43C4F2020398422ADC40F21043C4F20D
:102B70000203984241D040F2284339E09F23C4F237
:102B80000203984225DC7023C4F20203984234D039
:102B900088232DE040F29F43C4F2020398421FDCD9
:102BA00040F27043C4F20203984226D040F28843B8
:102BB0001EE04023C4F2020398421ED0582317E0BF
:102BC00040F24043C4F20203984216D040F2584308
:102BD0000EE0A023C4F2020398420ED0B82307E00F
:102BE00040F2B843C4F20203984206D040F2A04338
:102BF000C4F20203984240F0238103680B2262F37F
:102C000044030360226C1AB1082302681A4302606D
:102C1000884219DC9F22C4F20202904231DC572222
:102C2000C4F20202904256DC1022C4F20202904228
:102C300000F091802822C4F20202904200F08B80C2
:102C40004022C4F2020284E045F22F42C5F602029D
:102C500090422BDC40F2B742C4F20202904248DCC0
:102C600040F27042C4F20202904274D040F28842B4
:102C7000C4F2020290426ED040F2A042C4F20202BC
:102C800067E040F22742C4F20202904240DCA022F8
:102C9000C4F2020290425ED0B822C4F20202904214
:102CA00059D040F21042C4F2020252E045F26B42A7
:102CB000C5F6020290423CDC45F23042C5F6020203
:102CC000904248D045F24442C5F60202904242D0BA
:102CD00045F258423BE05822C4F2020290423AD0F8
:102CE0007022C4F20202904235D08822C4F202025D
:102CF0002FE040F2B842C4F2020290422BD045F2DB
:102D00000842C5F60202904225D045F21C421EE060
:102D100040F22842C4F2020290421CD040F24042EB
:102D2000C4F20202904216D040F25842C4F20202AB
:102D30000FE045F26C42C5F6020290420BD045F21C
:102D40009442C5F60202904205D045F28042C5F693
:102D5000020290426ED1236E1A68D20303D51A681C
:102D600042F480721A60E36E1BB11A6842F48072FA
:102D70001A60604510DC6F21C4F2020188421CDC3D
:102D80003F21C4F20201884232DC1021C4F2020168
:102D900088424FD028214AE088421ADC40F23F4165
:102DA000C4F2020188422ADC40F21041C4F202015E
:102DB00088423FD040F2284139E09F21C4F202010D
:102DC000884225DC7021C4F20201884232D0882179
:102DD0002DE040F29F41C4F2020188421FDC40F224
:102DE0007041C4F20201884224D040F288411EE0C2
:102DF0004021C4F2020188421CD0582117E040F261
:102E00004041C4F20201884214D040F258410EE021
:102E1000A021C4F2020188420CD0B82107E040F2A0
:102E2000B841C4F20201884204D040F2A041C4F289
:102E300002018842016841F001010160002010BDDB
:102E40000268052363F343020260226C002A3FF408
:102E5000DFAE0423D9E60000B0B5044601F01CF84B
:102E600040F287110546C2F20041621C097818BF82
:102E70000C4400BF01F010F8401BA042FAD3B0BDD3
:102E800090F89830013B012B0BD80068836D0B4202
:102E90000CD0836D0B408B420CD1C36D43F0020309
:102EA00009E000F19C010120022221E0C36D43F002
:102EB000010300E00323C3658B0504D5D0F8E0309F
:102EC0001343C0F8E0304B0504D5D0F8E4301A4382
:102ED000C0F8E4204FF6FF72436DC3F6CF720A408C
:102EE0001A4342658A0F4AF614010020C4F2000119
:102EF0000B681A430A60704790F89830022B1BD178
:102F0000B0B50368D3F8C05015F07C5F1CD0D3F87F
:102F1000C450AD021DD4D3F8C4300546C3F30444F5
:102F20002346FEF7BDF828680121A140C0F8D01063
:102F30000020C5F89410B0BDD0F89C1041F00801F5
:102F4000C0F89C1001207047D0F89C1041F020017F
:102F500003E0D0F89C1041F40071C0F89C100120EF
:102F6000B0BD00000000000070470000000000003D
:102F700090F89820013A012A0BD880B50A68002AF7
:102F8000CA680ED00B69072A43EA427E16D18B69C4
:102F900019E0D0F89C1041F00201C0F89C1001200B
:102FA0007047072A18D10A69D1E906C3120442EA18
:102FB000032242EA0C0242F0605217E0D1F808C046
:102FC0004B6943EA8C73006F496800EBC10240F81B
:102FD00031E05360002080BD8B68D1E904CE9B07AF
:102FE00043EAC26242EA0C4242EA0E024968C06EFB
:102FF00040F82120002080BD10B5044600F0E0FD1F
:103000002046BDE8104000F0BFBD000000000000F9
:10301000704700000000000070B590F89850022D35
:1030200011D1402914D10468D4F8A05015F4FE0F32
:103030002BD0D4F8A4506D062CD0D4F8A450ED01B8
:1030400030D4002531E0D0F89C1041F0080125E093
:1030500041290FD10468D4F8B05015F4FE0F14D0F4
:10306000D4F8B4506D0615D0D4F8B450ED0126D480
:10307000002527E0056D8D4207D900F17C04D0F8CA
:1030800054E04FF0000C0D4626E0D0F89C1041F0C3
:10309000200103E0D0F89C1041F48071C0F89C102E
:1030A000012070BDD4F8A050ED0FD4F8A440C4F3B3
:1030B000052404EB050E00F17404456C0BE0D4F814
:1030C000B050ED0FD4F8B440C4F3052404EB050E62
:1030D00000F17804C56CF44605FB0EFE256855F832
:1030E0002E4014F08044546055F82E4024F0604681
:1030F00008BFC4F38A46166055F82E4004F0005409
:10310000946005EB8E0455F82E6006F000461661BB
:10311000A688D661E68816F00F06D660666806F4C3
:1031200080165661666806F400169661E67906F028
:103130007F06166266684FEAD67656620ED040F277
:10314000B00E04F108050024C0F6020E2E5D1E55D7
:103150000134D6681EF80660B442F7D3402904D182
:103160000068C0F8A8C0002070BD412904D10068E3
:10317000C0F8B8C0002070BD1F2907D80068012220
:1031800002FA01F1C0F89810002070BD006801F04B
:103190001F01012202FA01F1C0F89C10002070BD4D
:1031A0000068D0F8C40000F03F0070470000000045
:1031B00070470000000000002DE9F04F87B0044682
:1031C0004AF61000C4F2000001684AF61400C4F286
:1031D0000000026820680A40D0F850B0D0F854903F
:1031E000056D466D036D0293436D0193036D069368
:1031F000436D0593036D0493436D0393D0F854A07E
:10320000D0F850805FEACA5310D518F480710DD001
:103210004FF4807101654AF610010020C4F20001EC
:10322000174608602046FFF7C3FF3A460BEA090B32
:103230004AF610095FEA4A50C4F200094FEA827761
:103240001AD518F4806017D020689146D0F8DC10A9
:10325000D0F8E42011404FF4806202654AF6100273
:10326000C4F2000200201060204600F001FD4A4632
:103270004AF61009C4F2000905EA06050BF4704687
:1032800057B120680021016502F00300C9F8000071
:1032900020463946FFF768FEDDE9011000EA010724
:1032A00005F00F0546B12068314606650020C9F8D3
:1032B0000000204600F0E4FC07F0F00645B120686D
:1032C000294605650020C9F80000204600F0D4FB1F
:1032D00046B12068314606650020C9F80000204646
:1032E00000F00EFC5FEA0A500CD518F4006009D01B
:1032F00020684FF4006101650020C9F800002046F5
:1033000000F0C2FC5FEA8A5011D518F400700ED0AC
:103310002068D0F8D810D0F8E02011404FF40072A7
:1033200002650020C9F80000204600F0A5FC5FEA15
:103330000A300CD518F4002009D020684FF4002181
:1033400001650020C9F80000204600F091FB5FEA0B
:10335000CA300CD518F4803009D020684FF4803181
:1033600001650020C9F80000204600F07DFC5FEAFE
:103370004A30DDE9031000EA01050CD518F480207D
:1033800009D020684FF4802101650020C9F80000B1
:10339000204600F065FC5FEA8A30DDE9051000EAAE
:1033A000010005F060710FD518F400320CD02268CE
:1033B0004FF4003313650022C9F80020D4F89C2094
:1033C00042F08002C4F89C2000F0715539B12068A9
:1033D00001650020C9F800002046FFF719FE4DB135
:1033E000206805650020C9F80000D4F89C00284337
:1033F000C4F89C002068A9F50161884209D0D4F87E
:103400009C00002868D0204607B0BDE8F04FFFF7C9
:10341000F3BD606881688907F1D0016A426A036A76
:10342000476A114003EA070202F03005D0F8208015
:10343000D0F82490D0F820B0466A026A069211F0C3
:103440000F01426A0592D0F824A0026A049203D0C8
:103450000162204600F0F8FB08EA09072DB1606818
:1034600029460562204600F0F7FB5FEA4A6006EA5B
:103470000B0607F4C0750ED5049810F040000AD072
:1034800060684023C16BC26B090C02F03F0203620B
:10349000204600F0DDFBDDE9051000EA010706F437
:1034A000FC462DB1606829460562204600F0C8FB45
:1034B00007F4F02036B161680E62D4F89C103143F5
:1034C000C4F89C1000289AD061680862D4F89C1057
:1034D0000843C4F89C0092E707B0BDE8F08F0000F5
:1034E00040B32DE9F04F83B04AF200080446C4F21D
:1034F00000080068404502D108F58070606094F8CB
:10350000980028B9002084F89900204600F0CCF9F2
:103510002068816921F01001816100F0BDFC054641
:1035200020688169090707D500F0B6FC401B0B280D
:10353000F6D312E001207047816941F001018161F9
:1035400000F0AAFC054600BF20688169C90711D1B7
:1035500000F0A2FC401B0B28F6D30120D4F89C10ED
:103560000843C4F89C00032084F89800012003B0AD
:10357000BDE8F08F816941F002018161217C82699F
:1035800022F04002012918BF40328261617C8269C9
:1035900022F48042012908BF02F580428261A17CA9
:1035A000826922F48052012918BF02F5805282619B
:1035B000816921F44073D4E902120B43836183696A
:1035C00023F0A4038361036923F0100303619AB11C
:1035D000012A0DD0022A09D08369032A43F080030F
:1035E0008361036943F01002026105D1202200E0EB
:1035F000042283691A438261D4E90572E369561E85
:103600006FF0FF02256A02EB0323B1F5407F43EA26
:103610004663A5F1010646EA030640F20003CFF631
:10362000FF7303EB074746EA0701C16110D1D4E9F4
:103630000B65D4E90917013F02EB06226FF00F0674
:103640003A4306EB05173A4303EB01411143C160CE
:10365000236E2BB1616ED0F8C0201143C0F8C010AA
:10366000E16DCDE90113D9424FF65441C0F6010195
:1036700009D0D0F8C820A36E22F0070251F82330F9
:103680001A43C0F8C820D4F840C0BCF1000F09D0DC
:10369000D0F8BC20636C22F0070251F823301A43A3
:1036A000C0F8BC20D4F848B0BBF1000F0AD0D0F865
:1036B000BC20E36C22F0700251F8233042EA03127E
:1036C000C0F8BC20D4F850A0BAF1000F0AD0D0F84E
:1036D000BC20636D22F4E06251F8231042EA01211C
:1036E000C0F8BC10404504D161688A6822F003022A
:1036F0008A600021C4F89410C4F89C10012184F859
:10370000981004F13409D0F884104FF6FC729143FC
:10371000656C99E80C02009541EA8201C0F88410BA
:10372000D0F8841021F47F0141EA0341C0F88410ED
:103730009918D0F888306FF38F0343EA8103C0F8FB
:103740008830D0F8883023F4FE0343EA0943C0F8F8
:10375000883001EB4903D0F8A0606FF38F0646EA8A
:103760008306C0F8A060D0F8A06026F4FE0646EA02
:103770000C46C0F8A06005FB0C36D0F8B0306FF3F3
:103780008F0343EA8603C0F8B030D0F8B03023F49A
:10379000FE0343EA0B43C0F8B030E36CD0F8AC5002
:1037A0006FF38F0503FB0B6645EA8605C0F8AC5046
:1037B000D4F8548008FB0A65D0F8F0606FF38F06E8
:1037C00046EA8506C0F8F060D0F8F0E0A66D2EF469
:1037D0007C1747EA0647C0F8F070F70007EB85074B
:1037E000D0F8C0506FF38F052F43C0F8C070D0F8E9
:1037F000C070009DDDF804E027F47C1705FB0CFC8D
:103800004AF2000547EA0E47C0F8C070C4F200054E
:1038100003FB0BC305F54067D0F8C05007EB8202ED
:1038200007EB810125F07C57029D47EA0567C0F848
:10383000C07001EBC90008FB0A372167A16E00EBDD
:103840008C0C606700EB8303E266C4E91EC30EFBC9
:1038500001F300EB87006943C4F8800000EBC60069
:10386000C4F8840000EB8300C4F8880000EB8100FA
:103870004DF2FC31C4F20001C4F89000884201D935
:1038800020206BE6824208D2002000BF42F8040BE1
:10389000D4F890108A42F9D369E6002003B0BDE85D
:1038A000F08F000000000000B0B5B6B0044602A8DA
:1038B000B8210025CDE93455CDE932553195FCF7D5
:1038C000CAFE4DF200412068C4F2000188427BD05C
:1038D0004AF20041C4F2000188423ED04AF200019F
:1038E000C4F20001884240F0BE80002003901D9089
:1038F00002A84FF40041029101F016FC08B1FDF757
:1039000087FB40F2C45144F2E040C2F20041C5F6E8
:1039100002000A68002A02F101020A6008D1C168A7
:1039200041F48071C160C16801F480710191019915
:103930000168152441F0080101600068132500F0BA
:103940000800019001980320319040F20040C5F634
:103950000200092100F500606CE0002003901D903A
:1039600002A84FF40041029101F0DEFB08B1FDF71F
:103970004FFB40F2C45144F2E040C2F20041C5F6B0
:1039800002000A68002A02F101020A6008D1C16837
:1039900041F48071C160C16801F4807101910199A5
:1039A0000168162441F0020101600068142500F04E
:1039B0000200019001984FF44050319040F20040D5
:1039C0000921C5F6020035E04FF40040029002A83C
:1039D00003951D9501F0A8FB08B1FDF719FB40F216
:1039E000C45144F2E040C2F20041C5F602000A6848
:1039F000002A02F101020A6008D1C16841F4807115
:103A0000C160C16801F48071019101990168A0242D
:103A100041F02001016000689F2500F02000019026
:103A20000198C020319040F20040C5F6020002210A
:103A300000F58050359131A9022232920022CDE961
:103A4000332200F045F905210022284600F040FB12
:103A5000284600F029FB05210022204600F038FB13
:103A6000204600F021FB36B0B0BD00000000000091
:103A70007047000000000000012920D140F62C61B1
:103A8000C2F200410978002908BF704710B58CB018
:103A900040F63064C2F200442268D2F830218242FB
:103AA00004D0013904F10404F6D105E002AA6B4602
:103AB0004021FFF7B1FA18B10CB0BDE810407047D3
:103AC000206890F82C21002AF6D000F59C73DDE9DF
:103AD000021C03E0013A03F10403EDD0186800284A
:103AE000F8D0C4686445F5D1D0E9054E0C40744562
:103AF000F0D1026853686A469847DDE7000000008D
:103B0000102920D140F62C61C2F200410978002929
:103B100008BF704710B58CB040F63064C2F2004464
:103B20002268D2F83021824204D0013904F1040421
:103B3000F6D105E002AA6B464121FFF76DFA18B1F4
:103B40000CB0BDE810407047206890F82C21002A86
:103B5000F6D000F59C73DDE9021C03E0013A03F1A5
:103B60000403EDD018680028F8D0C4686445F5D186
:103B7000D0E9054E0C407445F0D1026853686A469E
:103B80009847DDE70000000090F8981001290CD15B
:103B9000022180F8981001688A6922F001028A6186
:103BA0000021C0F89C1000207047D0F89C1041F014
:103BB0000401C0F89C1001207047000000000000C4
:103BC00090F89810022928D101688A6942F0010210
:103BD0008A618A69D20706D1342200BF013A24D013
:103BE0008B69DB07FAD08A6922F010028A618A6940
:103BF000120706D5342200BF013A16D08B691B0785
:103C0000FAD48A6942F002028A610021C0F8941055
:103C1000012180F8981000207047D0F89C1041F0E6
:103C20000801C0F89C1001207047D0F89C1041F0AA
:103C30000101C0F89C10032180F898100120704702
:103C40007047000000000000704700000000000006
:103C500070470000000000007047000000000000F6
:103C600070470000000000007047000000000000E6
:103C700070470000000000007047000000000000D6
:103C800070470000000000007047000000000000C6
:103C900090FAA0F0B0FA80F00F2888BF704740F685
:103CA0009061C2F2004151F8200010B1016809682A
:103CB00008477047000000008821C5F600010A6827
:103CC000024208BF70470860FFF7E2BF0000000033
:103CD0002DE9F04F83B00E68002E00F0C78000F190
:103CE000264742F2004507F1FF77C5F602050A2292
:103CF000A8424FEAB72500F1200308BF092200932C
:103D0000082D38BF4FEAB722002400274FF0000AE1
:103D100001920AE00AF1010A0E6836FA0AF207F186
:103D2000020704F1040400F0A180012202FA0AFB58
:103D300016EA0B08EED0D1F80490032209F0030E26
:103D4000AEF10106012E02FA07F610D8D0F808C02D
:103D5000CD682CEA0602BD402A438260C9F30015F3
:103D6000426822EA0B0205FA0AF52A434260BEF1D4
:103D7000030F1FD0C2688D68B243BD40BEF1020F71
:103D800042EA0502C26015D16FF00302009D02EA0B
:103D90005A0B04F01C030F2255F80BC002FA03FE65
:103DA000D1F810902CEA0E0C09FA03F343EA0C0345
:103DB00045F80B3002684B68B24303F00306BE407F
:103DC00013F4403F42EA06020260A3D044F2F443F7
:103DD00040F2084CC5F60203C5F6000C0F251A6820
:103DE00042F002021A601A6802F0020202922AF0FD
:103DF0000302029B04F00C0352F80C609D40AE439A
:103E0000019D05FA03F3334342F80C304FF0B04CF8
:103E1000DCF800204B6842EA0806DD0258BF22EABF
:103E200008069D02CCF8006040F2040CC5F6000CB8
:103E3000DCF8002042EA080658BF22EA08069D0383
:103E4000CCF80060DCF8802042EA080658BF22EA7D
:103E50000806DB03CCF88060DCF87C2042EA080628
:103E600058BF22EA0806CCF87C6053E703B0BDE8EF
:103E7000F08F0000000000000069084018BF01201A
:103E80007047000000000000002A08BF090481619B
:103E900070470000000000004BF27460C2F2004066
:103EA000006870470000000040F287104BF2746118
:103EB000C2F20040C2F2004100780A681044086073
:103EC000704700000000000080B5032000F030F9CA
:103ED00001F0BAFF44F218414FF6B543C5F60201AE
:103EE000C0F601030A68C2F303229A5C096801F074
:103EF0000F0102F01F02595CD04040F2A402C2F24E
:103F0000004201F01F0120FA01F1116040F2A0010E
:103F1000C2F2004108600F2000F00AF800281CBF20
:103F2000012080BD00F0A8F8002080BD0000000046
:103F30000F2847D8B0B58AB0044636200022214663
:103F4000002500F0C5F8362000F0AEF840F28810E9
:103F5000C2F20040046044F2E840C5F60200016885
:103F600041F010010160006801A900F0100002900A
:103F7000029802A801F0B4FE079C002C18BF01248F
:103F800001F002FF4DF68361A040C4F21B3141F203
:103F90000002A0FB010143F26030C2F200404FF08A
:103FA000FF33C4F20002026003EB9141C0E9011546
:103FB00040F2E731C0E9031502F0CEFD20B1012047
:103FC0000AB0B0BD0120704743F26030C2F2004039
:103FD00002F0B6FE0AB0B0BD10B54EF6A05E437852
:103FE000CEF2000E90F800C04EF8083CDEF800302B
:103FF00023F00103CEF8003043684EF8043C037B05
:10400000C27A817A447B120642EA0372837B42EAD7
:10401000C141C27B41EA8441447A41EA4341007A8A
:1040200041EA024141EA042141EA400040EA0C0031
:10403000CEF8000010BD00004EF62450CEF2000075
:10404000BFF35F8F016821F48031016000210167B7
:1040500070470000000000004EF6245140F00100BF
:10406000CEF200010867086840F480300860BFF3B2
:104070004F8FBFF36F8F704781B044F2F44000223E
:10408000C5F60200016841F00201016000680F21DD
:1040900000F0020000906FF00100009B01B000F002
:1040A00017B8000000000000002848BF704700F06B
:1040B0001F01012202FA01F14EF20012C0F34A1070
:1040C000CEF2000242F8201070470000000000000D
:1040D00070B54EF60C5C4FF0FF36CEF2000C00F1DE
:1040E000604505F56445DCF80030C3F3022E8EF020
:1040F0000703042B28BF0423BEF1030406FA03F3CD
:1041000021EA030100F00F0338BF0024043B00281C
:10411000634406FA04F048BF03F10C05A14022EA0B
:10412000000008430001287070BD0000000000007E
:104130004EF60C514FF6FF03CEF200010A681A400A
:1041400060F30A2242F0806040F0FD700860704722
:1041500001680122C0F8D824002280F8CC248869A4
:1041600040F000608861486D40F08052002042F0CD
:1041700003024A657047000070470000000000001D
:104180000268002051627047B0B5D0F800E0DEF858
:104190002400D1B1DEF82830B1F1010C00EB13435B
:1041A0000BD05FFA8CF10EF58070002450F8045F9C
:1041B00001348C4203EB1543F8D30EEB8C0043EA39
:1041C0000241C0F804110020B0BD40EA0240CEF820
:1041D00028000020B0BD0000D0F8E00406F0B0BB1D
:1041E00001EBC10200EB8202D0F8E004126A06F093
:1041F00013BB00000000000001EBC10200EB8202D3
:10420000D0F8E004D2F8602206F05EBB00000000A7
:10421000D0F8E00406F098BB10B501F00F0E0A4686
:104220004FFA82FCD2090EEBCE01BCF1000F00EB7D
:10423000810303F5157148BF03F1140190F894341C
:104240004A70012B81F800E001D1022010BD01224B
:1042500080F8942402680446104607F0D9F800203C
:1042600084F8940410BD0000B0B5037901F00F028A
:104270009A4201D90120B0BD4CB202EBC2038C4678
:10428000002C00EB830303F515714FEADC1448BFE3
:1042900003F1140190F894344C700024012B8C70BD
:1042A0000A7001D10220B0BD012280F89424026876
:1042B0000546104607F038FA204685F89444B0BD0C
:1042C00001F00F0101EBC10100EB8100D0F86802A1
:1042D0007047000000000000B0B501F00F0E8C46E2
:1042E0004FFA8CF40EEBCE01002C6FF3DF2200EBC3
:1042F000810505F5157148BF05F114015FEADC156C
:104300004D7081F800E08A600B7118BFA1F81AE0C7
:10431000022B01D100224A7190F89424012A01D184
:104320000220B0BD012280F89424026804461046A1
:1043300006F08EFF002084F89404B0BD0000000059
:1043400080B501F00F0C0CEBCC0100EB810E0021CD
:10435000CEE998238379CEF868128EF855120EF5BF
:104360001571012B8EF854C208BFCA6100681A4645
:1043700007F022FA002080BDB0B5027901F00F04E9
:1043800094424FF001022CD84FFA81FC01EBC1039B
:1043900004EBC405BCF1000F00EB830303F51573B8
:1043A00000EB850548BF05F1140390F89454C90942
:1043B0005970012D9A701C7001D10220B0BD0121ED
:1043C00080F8941405460068194607F0D5F92CB911
:1043D000A979286805F29C4207F076F9002285F851
:1043E00094241046B0BD000080B501F00F0C90F889
:1043F00006E00CEBCC01BEF1010F00EB810101F8EE
:1044000014CF4FF0000C0B614FF00103CA60C1F8EC
:1044100014C04B7008BFCA610068724607F0CCF93F
:10442000002080BD000000002DE9F04F87B0056836
:104430008246284607F040FB10B107B0BDE8F08F78
:10444000DAF8000007F068FB0028F6D0D5F8080875
:10445000C0F30D20CAF8D404DAF8000007F05CFBC2
:10446000800705D5DAF80000416901F002014161D9
:1044700005F500600590DAF8000007F04DFBC00676
:10448000069536D5DAF80000816921F010018161C6
:104490002C6A04F00F0000EBC001C4F343400AEBA8
:1044A0008101062801F5157511D002281AD147F6A9
:1044B000F07014EA000615D03409E968069822461F
:1044C00007F02EFBE86800EB1610E86007E00AF240
:1044D0009C410822069807F023FBC4F30A1468697C
:1044E00020446861DAF80000816941F010018161BF
:1044F000069DDAF8000007F00FFB000340F1F280A0
:10450000DAF8000007F0E4FA002800F0EB80064635
:104510004FF4306800244FF0000B0AF29C400490E6
:1045200009E000BF0BF1010B760808F1200804F147
:10453000240400F0D780F007F4D05FFA8BF9DAF8A2
:104540000000494607F0E0FA0746C0075FD005EBD8
:10455000080001218160DAF8000008EB0001036C1B
:104560008A689AF80650012D25D1150732D4950690
:1045700000F1B08043F20B05C4F65475AB42069DC2
:1045800002D312F400422FD10AEB0402D2F87432A3
:1045900009696FF3DF41A3EB0101C2F8681294BB14
:1045A000D2F86432002B00F09B80D2F860020844FD
:1045B000C2F8600227E043F20B05C4F65475FF35DC
:1045C000AB4217D11004069D0ED490061BD52020B7
:1045D000886018E043F20B00069DC4F654708342D5
:1045E00015D312F4004012D04FF400408860380711
:1045F0000FD437E0069D34B9DAF8641219B90021F6
:10460000049A07F061F850464946FFF7F5FD380770
:1046100028D505EB08000821816043F20B01DAF888
:104620000000C4F65471056C40448D42816805D386
:1046300011F400411CBF4FF400418160504600F06E
:10464000C3FB43F20B00C4F654708542069D09D3A8
:104650009AF80600012805D1DAF800000121049A31
:1046600007F032F8F80607D4B8070BD4B80624D4FC
:10467000B8047FF557AF27E005EB080010218160F3
:10468000B807F3D56869000604D50599486840F471
:10469000806048600AEB040090F85712012906D1A7
:1046A000002180F857125046494600F0A9FA05EB60
:1046B000080002218160B806DAD505EB0800202148
:1046C0008160B8047FF52EAF05EB08004FF4005170
:1046D000816027E720208860069D380799D4C1E7CC
:1046E00001218DE7DAF8000007F016FA400340F1E7
:1046F000DC80DAF8000007F0E3F9002800F0D5804C
:104700000646069800F510690AF1140B00270AF214
:104710009C400290CDE903B905E000BF760807F19F
:10472000010700F0C280F007F8D0FDB2DAF800000F
:10473000294607F0D5F90446C0070BD1200733D42A
:10474000E00637D460063BD4A0073FD42006E5D569
:1047500055E000BF059B07F00F004FF0010C09EB7F
:1047600047120CFA00F0596B21EA00005863C2F8B6
:1047700008C09AF80600012810D107EBC7000BEB20
:104780008000D0E902121144C1603FB9006928B924
:10479000DAF800000121029A06F096FF50462946F9
:1047A000FFF71EFD2007CBD509EB471008218160DC
:1047B000E006C7D509EB4710102181606006C3D51C
:1047C00009EB471040218160A007BFD50698394604
:1047D00007F03EF907EBC7000BEB800010F8031F52
:1047E000012905D1002101705046294600F004FA44
:1047F00009EB47100221816020067FF58FAF07EBA0
:10480000C7000BEB8008D8E904108142FFF486AFA3
:10481000DAF80040081AD8F80810884238BF014674
:1048200004EB47100331D0F8182992B2B2EB910F84
:1048300028D300F5106900BFD8E90410814221D9BE
:10484000081A9AF80620D8E902B1584538BF8346BD
:10485000009220461FFA8BF32A4607F055FAD8F843
:104860000C00D8F814105844C8F80C0001EB0B00E9
:10487000C8F814000BF10300D9F8181089B2B1EB95
:10488000900FD9D2D8E904018842DDE903B93FF697
:1048900045AF07F00F00012101FA00F0D4F83418F9
:1048A00021EA0000C4F8340838E7DAF8000007F01D
:1048B00033F9B0F1FF3F069C19DC0599486820F0F8
:1048C000010048609AF8CC04012807D100208AF83A
:1048D000CC0400215046FFF74FFC02E0504600F0A8
:1048E00057FADAF80000416901F000414161DAF855
:1048F000000007F011F900050CD505988068C00785
:1049000002D0504600F088FADAF80000416901F45C
:1049100000614161DAF8000007F0FEF8000117D5E8
:10492000DAF80000416901F0006141619AF8CC14A5
:1049300019B1504600F070FA0AE001218AF8CC144F
:10494000406DC0F38300CAF8D0045046FFF714FC52
:10495000DAF8000007F0E0F8C00453D5059948687C
:1049600020F001004860DAF80000102107F070F82C
:104970009AF80400D8B104F510614FF67F3200BFF9
:104980008A6001380B6823F400130B60C1F8082219
:10499000D1F8003223F40013C1F80032D1F800320C
:1049A00043F00063C1F8003201F12001E8D1059F16
:1049B00084214422F86940F00110F8619AF80F0050
:1049C00000284FF00B0008BF142104BF42F22B0057
:1049D00010227B5818437850B85840F00B00B8505C
:1049E00038680AF29C4220F4FE6038609AF806109B
:1049F000DAF8000006F068FEDAF80000416901F418
:104A000080514161DAF8000007F086F880041CD577
:104A1000DAF8000006F060FCDAF8000007F03CF875
:104A20008AF80700DAF8004001F086F99AF80720C2
:104A30000146204607F0E0F8504600F095F9DAF814
:104A40000000416901F400514161DAF8000007F00B
:104A500063F8000708D5504600F09EF9DAF8000028
:104A6000416901F008014161DAF8000007F054F8EB
:104A700000062AD50699886920F0800088619AF896
:104A80000400022821D30AF515740AF11405012641
:104A900040F27B2706E000BF9AF804000136243775
:104AA000864212D21AF807000128F5D106F00F004D
:104AB000320600EBC00005EB800158BF04EB80011B
:104AC000DAF8000006F074FFE6E7DAF8000007F015
:104AD00023F8C0022FD59AF80400022825D306989F
:104AE0000AF1140400F512650AF13B064FF00108C3
:104AF000012706E09AF80400013720352436874262
:104B000013D2286871780129F4D1B0F1FF3FF1DCAC
:104B100007F00F0086F8008000EBC00004EB800176
:104B2000DAF8000006F044FFE4E7DAF80000416933
:104B300001F480114161DAF8000006F0EDFF800217
:104B400033D59AF80410069D022928D305F5326062
:104B500001390AF51F72012306E000BF013900F197
:104B6000200002F124021AD007681678012EF5D130
:104B7000B7F1FF3FF2DCDAF8D46486EA1747FF07A3
:104B8000ECD102F8013CAF6947F08007AF616F6973
:104B90003F06E3D40599486840F400704860DAF8AD
:104BA0000000416901F400114161DAF8000006F0EB
:104BB000B3FF400008D55046FFF70EFBDAF80000BF
:104BC000416901F080414161DAF8000006F0A4FF7C
:104BD00040077FF532ACDAF800004468600702D580
:104BE0005046FFF715FBDAF80000416821434160A9
:104BF00007B0BDE8F08F0000D0F8E00405F00CBF6E
:104C0000D0F8E00405F020BF002862D010B582B0D3
:104C1000044690F8950428B9002084F894042046AE
:104C200000F06AF8032084F89504206806F044FD3B
:104C3000D4E9000194F810C0D4E90223CDF800C0F3
:104C400006F05AFB00283ED12068002106F08CFFB8
:104C5000C8BB207960B300EBC00000214FEA800E92
:104C60004FF0010C00230022E01824339E4502750A
:104C7000C28502F1010280F815C00176C1610162AE
:104C80004162F1D100210022002300BFA01824328C
:104C9000964580F8543203F1010380F8551280F8EC
:104CA0005812C0F85C12C0F86012C0F86412EDD15E
:104CB000D4E9000194F810C0D4E90223CDF800C073
:104CC00006F006FC38B1022084F89504012002B0F9
:104CD00010BD0120704700206074012084F8950405
:104CE000207B012802D12046FFF732FA206806F027
:104CF000DFFB002002B010BD10B5B0B0044602A822
:104D0000B821FBF7A8FC00212068C4F20401884206
:104D100001D030B010BD002003904FF480200290ED
:104D20004FF44010239002A800F0FEF908B1FCF700
:104D30006FF900F0B1F844F2D8400022C5F6020045
:104D4000016841F0007101600068052100F0007009
:104D5000019001984D20FFF7BBF94D20FFF7A4F912
:104D600030B010BD0000000010B5C179044621B17B
:104D7000022901D0FCF74CF90121D4F8E00405F038
:104D8000EFFED4F8E004BDE8104005F09DBE000041
:104D9000D0F8E00405F0C8BED0F8E00405F0D0BEBD
:104DA00090F89424012A01D10220704710B5012205
:104DB00080F89424417404460268104606F008FF07
:104DC000002084F8940410BDD0F8E02400F29C4147
:104DD000104605F0DDBE000010B5044690F89404BE
:104DE000012801D1022010BD2068012184F894140B
:104DF000C168490606D5617B012903D1816B41F465
:104E00008031816306F01CFE206806F041FB002023
:104E100084F8940410BD000010B50446D0F8E004F6
:104E200005F00EFF2068D0F8001E41F00101C0F827
:104E3000001EE07A002808BF10BD4EF61050CEF2DA
:104E40000000016841F00601016010BD0000000093
:104E5000B0B544F60C05C5F602052968490729686E
:104E600005D401F00701081A18BF0120B0BD21F0D8
:104E7000070108432860FFF70FF8044655F8080CAF
:104E8000800407D4FFF708F8001BB0F57A7FF5D946
:104E90000120B0BD0020B0BD44F60C00C5F60200F4
:104EA000016841F08071016070470000000000005F
:104EB00080B500F041FF44F220414FF6B542C5F6FF
:104EC0000201C0F601020968C1F30211515C01F050
:104ED0001F01C84080BD000080B544F2384EC5F6C1
:104EE000020E5EF8103C5EF8101C5EF80C2CC1F34C
:104EF000053CDEF80410BCF1000F15D0C908D2063D
:104F000001EAE2716FF35F3100EE101A03F0030162
:104F10000229B8EE400A0CD071B95EF8381C890637
:104F20000DD49FED351A18E000218160C0E9001111
:104F300080BD9FED301A10E09FED2D1A0DE05EF858
:104F4000381C49F20002C0F2D032C1F3C10122FA8A
:104F500001F101EE101AB8EE411ADEF800109FEDD3
:104F6000273A6FF35F2102EE101ADEF80010C1F34A
:104F70004621B8EE422A00EE032A00EE10CAB7EE30
:104F8000003AB8EE400A81EE000A32EE031A02EE51
:104F9000101AB8EE422A20EE010A32EE031A80EE11
:104FA000011ABCEEC11A80ED001ADEF80010C1F340
:104FB000064101EE101AB8EE411A31EE031A80EEE6
:104FC000011ABCEEC11A80ED011ADEF80010C1F31F
:104FD000066101EE101AB8EE411A31EE031A80EEA6
:104FE000010ABCEEC00A10EE101A816080BD00BF3D
:104FF0000024744A20BCBE4B0024744C00000039CD
:1050000080B544F2404EC5F6020E5EF8183C5EF8DC
:10501000181C5EF8142CC1F3055CDEF80410BCF11A
:10502000000F15D0C908D20501EAE2716FF35F31B4
:1050300000EE101A03F003010229B8EE400A0CD06A
:1050400071B95EF8401C89060DD49FED351A18E041
:1050500000218160C0E9001180BD9FED301A10E091
:105060009FED2D1A0DE05EF8401C49F20002C0F2DF
:10507000D032C1F3C10122FA01F101EE101AB8EEEB
:10508000411ADEF800109FED273A6FF35F2102EE20
:10509000101ADEF80010C1F34621B8EE422A00EEE5
:1050A000032A00EE10CAB7EE003AB8EE400A81EECD
:1050B000000A32EE031A02EE101AB8EE422A20EE6F
:1050C000010A32EE031A80EE011ABCEEC11A80ED1D
:1050D000001ADEF80010C1F3064101EE101AB8EE16
:1050E000411A31EE031A80EE011ABCEEC11A80EDAE
:1050F000011ADEF80010C1F3066101EE101AB8EED5
:10510000411A31EE031A80EE010ABCEEC00A10EE1D
:10511000101A816080BD00BF0024744A20BCBE4BC1
:105120000024744C000000392DE9F04381B004469E
:10513000C07844F22C490007C5F6020901D40025C5
:1051400020E0606E4FEA3050032835D80025DFE8B4
:1051500000F0020A1C22D9F8000040F40030C9F81F
:105160000000D5B906E004F10800022103F0DCFBE1
:10517000054695B9D9F82400616E20F44010084323
:10518000C9F824004FF0000808E004F128000221CB
:1051900003F05AFC0546002DECD0A8466078C00705
:1051A0001ED0A06D04283ED8DFE800F02B340A039F
:1051B00003006DB1A84613E00125002DEDD1D9E71C
:1051C00004F12800002103F03FFC0546002DF1D139
:1051D000D9F82400A16D20F007000843C9F8240085
:1051E0006078400747D5D4F8A4004FEA70500528EE
:1051F0002CD8DFE800F01C2F2503030395B3A84645
:1052000039E0D9F8000040F40030C9F80000002D62
:10521000D0D1DDE704F10800002103F085FB05464D
:10522000002DC7D1D4E70125002DC3D1D0E7D9F88F
:10523000000040F40030C9F80000002DDFD111E07B
:1052400004F12800002103F0FFFB08E00125002DF8
:10525000D5D107E004F10800002103F065FB054605
:10526000002DCCD1D9F82C00D4F8A41020F4600083
:105270000843C9F82C006078000731D5D4F8A8009D
:105280004FEA3060052816D8DFE800F006190F0352
:105290000303E5B1A84623E0D9F8000040F400304C
:1052A000C9F80000002DF5D111E004F1280000211B
:1052B00003F0CAFB08E00125002DEBD107E004F163
:1052C0000800002103F030FB0546002DE2D1D9F89B
:1052D0002C00D4F8A81020F0E0600843C9F82C0096
:1052E000E07880071BD5E06C4FEA301003282FD8F8
:1052F000DFE800F0020525024DB1A8460FE0D9F81D
:10530000000040F40030C9F80000002DF5D1D9F8B4
:105310002000E16C20F030000843C9F820006078DC
:10532000C00629D5E06D4FEA3030042849D8DFE8BF
:1053300000F0363F13030300B5B1A8461CE004F1AA
:105340000800022103F0F0FA0546002DD5D1DEE772
:105350000125002DD1D1DAE704F12800002103F066
:1053600073FB0546002DE8D1D9F82400E16D20F447
:10537000E0400843C9F824006078800639D5206EE3
:105380004FEA3040052829D8DFE800F025031F2523
:10539000252504F10800012103F0C6FA1AE0D9F826
:1053A000000040F40030C9F80000002DC5D1DBE753
:1053B00004F10800002103F0B7FA0546002DBCD126
:1053C000D2E70125002DB8D1CEE704F12800012154
:1053D00003F03AFB054625B1A8460AE00125002D59
:1053E000FAD1D9F82400216E20F4E0200843C9F84E
:1053F00024006078400625D5D4F8AC004FEA307020
:10540000052813D8DFE800F00F03090F0F0F04F190
:105410000800012103F088FA04E004F128000121CA
:1054200003F012FB054625B1A8460BE00125002D2F
:10543000FAD1D9F82C00D4F8AC1020F0E0400843A1
:10544000C9F82C006078000620D5E06ED8B1B0F124
:10545000005F12D0B0F1805F26D1D9F8000040F48F
:105460000030C9F8000085B9D9F82400E16E20F0B9
:1054700040500843C9F8240008E004F10800012165
:1054800003F052FA0546002DEED0A846E078C0079A
:105490001ED0A06C032800F28080DFE800F0020933
:1054A00074026DB1A84613E00125002DEDD1DBE7B4
:1054B000D9F8000040F40030C9F80000002DF1D107
:1054C000D9F82000A16C20F003000843C9F820009F
:1054D000A078400644D5D9F8D40340F48070C9F8C8
:1054E000D403FEF7D9FC0646D9F8D403C00505D489
:1054F000FEF7D2FC801B6528F6D303257DBBD9F8C7
:105500004410D4F8B000414011F4407F11D0D9F8D4
:105510004410D9F8442042F48032C9F84420D9F824
:10552000442021F4407122F48032C9F84420C9F8A3
:105530004410B0F5807F0FD1FEF7AEFC064641F275
:10554000893700BFD9F84400800705D4FEF7A4FCD2
:10555000801BB842F6D30325002D00F07A82A846BE
:105560002078C00732D0A06F4FEAF000052822D87B
:10557000DFE800F01E03181E1E1E04F108000121C2
:1055800003F0D2F913E004F10800022103F0CCF992
:105590000546002D7FF486AF92E70125002D7FF4AC
:1055A00081AF8DE704F12800012103F04DFA054693
:1055B00025B1A8460AE00125002DFAD1D9F8280026
:1055C000A16F20F038000843C9F828002078800730
:1055D00021D5606F052813D8DFE800F00F03090F0D
:1055E0000F0F04F10800012103F09EF904E004F11B
:1055F0002800012103F028FA054625B1A8460AE053
:105600000125002DFAD1D9F82800616F20F007009C
:105610000843C9F828002078400723D5D4F8900023
:10562000052813D8DFE800F00F03090F0F0F04F16E
:105630000800012103F078F904E004F128000121B9
:1056400003F002FA054625B1A8460BE00125002D1E
:10565000FAD1D9F82C00D4F8901020F007000843B4
:10566000C9F82C002078800625D5D4F88C004FEAA4
:105670003070052813D8DFE800F00F03090F0F0F73
:1056800004F10800002103F04FF904E004F12800C0
:10569000022103F0D9F9054625B1A8460BE0012502
:1056A000002DFAD1D9F82800D4F88C1020F0E04071
:1056B0000843C9F828002078400625D5D4F898007A
:1056C0004FEAB020052813D8DFE800F00F03090FD8
:1056D0000F0F04F10800002103F026F904E004F1A3
:1056E0002800022103F0B0F9054625B1A8460BE0D9
:1056F0000125002DFAD1D9F82C00D4F8981020F407
:10570000E0500843C9F82C002078000625D5D4F8CD
:105710009C004FEA7030052813D8DFE800F00F0333
:10572000090F0F0F04F10800002103F0FDF804E059
:1057300004F12800022103F087F9054625B1A846A7
:105740000BE00125002DFAD1D9F82C00D4F89C10DB
:1057500020F460400843C9F82C002078000716D5D3
:10576000D4F88000B0F5805F08D104F12800022150
:1057700003F06AF9002818BF4FF00108D9F8280093
:10578000D4F8801020F440500843C9F8280020784D
:10579000C00616D5D4F89400B0F5807F08D104F186
:1057A0002800022103F050F9002818BF4FF001082B
:1057B000D9F82C00D4F8941020F440700843C9F8AC
:1057C0002C00A078000724D5D4F8A000B0F5003F45
:1057D0001CD0B0F5803F13D0002840F0E58004F1E4
:1057E0000800002103F0A0F805468DB9D9F82C0077
:1057F000D4F8A01020F440300843C9F82C0008E089
:1058000004F12800022103F01FF90546002DEDD018
:10581000A846A078400725D5D4F88400B0F5401FED
:105820001DD0B0F5001F14D0B0F5801F40F0C1802E
:10583000D9F8000040F40030C9F800008DB9D9F85B
:105840002800D4F8841020F440100843C9F8280038
:1058500008E004F12800012103F0F6F80546002DC8
:10586000EDD0A846A078C0071FD0206DB0F5803FCE
:105870000BD0002840F09380D9F8000040F40030AD
:10588000C9F800004DB1A8460FE004F1080002215C
:1058900003F04AF80546002DF5D1D9F82000216D16
:1058A00020F480300843C9F82000E078800608D54D
:1058B00004F12800022103F0C7F8002818BF4FF0B8
:1058C0000108D4E900108A0340F18280E26F6FF092
:1058D000010303EB3223022B0AD34FEA32233BB1FD
:1058E000012B6BD1D9F8003043F40033C9F80030F4
:1058F000002D66D0CA026ED48A0277D44A0000F125
:105900008080CA0F40F08D80090200F19580C007A9
:1059100007D004F10800002103F006F8002818BFA2
:1059200005462079800707D504F10800012102F01F
:10593000FBFF002818BF05462079400707D504F172
:105940000800022102F0F0FF002818BF0546207968
:10595000000707D504F12800002103F075F800289E
:1059600018BF05462079C00607D504F1280001219B
:1059700003F06AF8002818BF05462079800607D58D
:1059800004F12800022103F05FF8002818BF012568
:10599000002D18BF0125284601B0BDE8F083012580
:1059A000002D7FF470AF78E70125002D7FF430AF34
:1059B0001CE70125002D7FF454AF40E70125002DA1
:1059C00098D1D9F8283023F440731A43C9F8282015
:1059D0004546CA0290D5D9F82420236F22F0004210
:1059E0001A43C9F824208A027FF588AFD9F8242009
:1059F000A36E22F080721A43C9F824204A007FF572
:105A000080AF59F81C2C22F4004249F81C2CD4F821
:105A1000B42059F81C3C1A4349F81C2CCA0F3FF417
:105A200073AFD9F82020636D22F040521A43C9F8B1
:105A3000202009027FF56BAFD9F82810D4F8882010
:105A400021F440011143C9F82810C0077FF461AF69
:105A500067E74FF6CF73D4F8B00059F81C2CC0F2AA
:105A6000FF0300F4407122F47C5203EA1013B1F5F5
:105A7000407F08BF1A436FF31F3049F81C2CD9F838
:105A800044100843C9F844006AE500000000000023
:105A90002DE9F04381B0002800F0F88042F20008C0
:105AA0000446C5F200288946D8F8000000F00F002F
:105AB00088420ED2D8F8000020F00F0040EA09001A
:105AC000C8F80000D8F8000000F00F00484540F08A
:105AD000DD80206844F218474107C5F602070AD561
